{
    "contractName": "FootballGameBet",
    "abi": [
        {
            "inputs": [
                {
                    "internalType": "string",
                    "name": "hometeam",
                    "type": "string"
                },
                {
                    "internalType": "string",
                    "name": "awayteam",
                    "type": "string"
                },
                {
                    "internalType": "uint256",
                    "name": "starttime",
                    "type": "uint256"
                },
                {
                    "internalType": "uint256",
                    "name": "stakeLimit",
                    "type": "uint256"
                },
                {
                    "internalType": "address payable",
                    "name": "organiserAddress",
                    "type": "address"
                }
            ],
            "stateMutability": "nonpayable",
            "type": "constructor"
        },
        {
            "inputs": [],
            "name": "awayTeam",
            "outputs": [
                {
                    "internalType": "string",
                    "name": "",
                    "type": "string"
                }
            ],
            "stateMutability": "view",
            "type": "function"
        },
        {
            "inputs": [],
            "name": "awayTeamGoals",
            "outputs": [
                {
                    "internalType": "uint256",
                    "name": "",
                    "type": "uint256"
                }
            ],
            "stateMutability": "view",
            "type": "function"
        },
        {
            "inputs": [],
            "name": "betOnAwayTeam",
            "outputs": [],
            "stateMutability": "payable",
            "type": "function"
        },
        {
            "inputs": [],
            "name": "betOnHomeTeam",
            "outputs": [],
            "stateMutability": "payable",
            "type": "function"
        },
        {
            "inputs": [
                {
                    "internalType": "address",
                    "name": "",
                    "type": "address"
                }
            ],
            "name": "bets",
            "outputs": [
                {
                    "internalType": "uint256",
                    "name": "",
                    "type": "uint256"
                }
            ],
            "stateMutability": "view",
            "type": "function"
        },
        {
            "inputs": [
                {
                    "internalType": "uint256",
                    "name": "homeGoals",
                    "type": "uint256"
                },
                {
                    "internalType": "uint256",
                    "name": "awayGoals",
                    "type": "uint256"
                }
            ],
            "name": "gameFinished",
            "outputs": [],
            "stateMutability": "nonpayable",
            "type": "function"
        },
        {
            "inputs": [],
            "name": "getAllPlayers",
            "outputs": [
                {
                    "internalType": "address payable[]",
                    "name": "",
                    "type": "address[]"
                }
            ],
            "stateMutability": "view",
            "type": "function"
        },
        {
            "inputs": [],
            "name": "homeTeam",
            "outputs": [
                {
                    "internalType": "string",
                    "name": "",
                    "type": "string"
                }
            ],
            "stateMutability": "view",
            "type": "function"
        },
        {
            "inputs": [],
            "name": "homeTeamGoals",
            "outputs": [
                {
                    "internalType": "uint256",
                    "name": "",
                    "type": "uint256"
                }
            ],
            "stateMutability": "view",
            "type": "function"
        },
        {
            "inputs": [],
            "name": "organiser",
            "outputs": [
                {
                    "internalType": "address payable",
                    "name": "",
                    "type": "address"
                }
            ],
            "stateMutability": "view",
            "type": "function"
        },
        {
            "inputs": [
                {
                    "internalType": "uint256",
                    "name": "",
                    "type": "uint256"
                }
            ],
            "name": "players",
            "outputs": [
                {
                    "internalType": "address payable",
                    "name": "",
                    "type": "address"
                }
            ],
            "stateMutability": "view",
            "type": "function"
        },
        {
            "inputs": [],
            "name": "stake",
            "outputs": [
                {
                    "internalType": "uint256",
                    "name": "",
                    "type": "uint256"
                }
            ],
            "stateMutability": "view",
            "type": "function"
        },
        {
            "inputs": [],
            "name": "startTime",
            "outputs": [
                {
                    "internalType": "uint256",
                    "name": "",
                    "type": "uint256"
                }
            ],
            "stateMutability": "view",
            "type": "function"
        }
    ],
    "bytecode": "60806040523480156200001157600080fd5b5060405162000e1d38038062000e1d833981810160405260a08110156200003757600080fd5b81019080805160405193929190846401000000008211156200005857600080fd5b9083019060208201858111156200006e57600080fd5b82516401000000008111828201881017156200008957600080fd5b82525081516020918201929091019080838360005b83811015620000b85781810151838201526020016200009e565b50505050905090810190601f168015620000e65780820380516001836020036101000a031916815260200191505b50604052602001805160405193929190846401000000008211156200010a57600080fd5b9083019060208201858111156200012057600080fd5b82516401000000008111828201881017156200013b57600080fd5b82525081516020918201929091019080838360005b838110156200016a57818101518382015260200162000150565b50505050905090810190601f168015620001985780820380516001836020036101000a031916815260200191505b50604090815260208201519082015160609092015190935090915042831162000208576040805162461bcd60e51b815260206004820152601860248201527f496e76616c69642067616d652073746172742074696d652e0000000000000000604482015290519081900360640190fd5b60008551116200025f576040805162461bcd60e51b815260206004820152601e60248201527f486f6d65207465616d206e616d652063616e277420626520656d7074792e0000604482015290519081900360640190fd5b6000845111620002b6576040805162461bcd60e51b815260206004820152601e60248201527f41776179207465616d206e616d652063616e277420626520656d7074792e0000604482015290519081900360640190fd5b600082116200030c576040805162461bcd60e51b815260206004820152601760248201527f5374616b652076616c75652063616e277420626520302e000000000000000000604482015290519081900360640190fd5b8451620003219060009060208801906200036a565b508351620003379060029060208701906200036a565b50600492909255600580546001600160a01b0319166001600160a01b0390931692909217909155600655506200040f9050565b828054600181600116156101000203166002900490600052602060002090601f016020900481019282601f10620003ad57805160ff1916838001178555620003dd565b82800160010185558215620003dd579182015b82811115620003dd578251825591602001919060010190620003c0565b50620003eb929150620003ef565b5090565b6200040c91905b80821115620003eb5760008155600101620003f6565b90565b6109fe806200041f6000396000f3fe6080604052600436106100c25760003560e01c80637e5374861161007f578063ae989d3611610059578063ae989d3614610255578063efa1c4821461026a578063f71d96cb146102cf578063ff5a7ef8146102f9576100c2565b80637e537486146101dc5780637f394e6f1461020d57806389a78f1a14610222576100c2565b80633a4b66f1146100c75780635fe8bbda146100ee57806365f95f31146100f857806378e97925146101285780637c968e731461013d5780637d79c19214610152575b600080fd5b3480156100d357600080fd5b506100dc610301565b60408051918252519081900360200190f35b6100f6610307565b005b34801561010457600080fd5b506100f66004803603604081101561011b57600080fd5b5080359060200135610431565b34801561013457600080fd5b506100dc6106db565b34801561014957600080fd5b506100dc6106e1565b34801561015e57600080fd5b506101676106e7565b6040805160208082528351818301528351919283929083019185019080838360005b838110156101a1578181015183820152602001610189565b50505050905090810190601f1680156101ce5780820380516001836020036101000a031916815260200191505b509250505060405180910390f35b3480156101e857600080fd5b506101f1610772565b604080516001600160a01b039092168252519081900360200190f35b34801561021957600080fd5b506100dc610781565b34801561022e57600080fd5b506100dc6004803603602081101561024557600080fd5b50356001600160a01b0316610787565b34801561026157600080fd5b50610167610799565b34801561027657600080fd5b5061027f6107f4565b60408051602080825283518183015283519192839290830191858101910280838360005b838110156102bb5781810151838201526020016102a3565b505050509050019250505060405180910390f35b3480156102db57600080fd5b506101f1600480360360208110156102f257600080fd5b5035610856565b6100f661087d565b60065481565b3360009081526007602052604090205415610369576040805162461bcd60e51b815260206004820152601c60248201527f596f7527766520616c726561647920706c616365642061206265742e00000000604482015290519081900360640190fd5b60045442111561037857600080fd5b60065434146103c5576040805162461bcd60e51b815260206004820152601460248201527324b73b30b634b21039ba30b5b29030b6b7baba1760611b604482015290519081900360640190fd5b3360009081526007602052604090205461041c57600880546001810182556000919091527ff3f7a9fe364faab93b216da50a3214154f22a0a2b415b23a84c8169e8b636ee30180546001600160a01b031916331790555b33600090815260076020526040902060029055565b60004711610486576040805162461bcd60e51b815260206004820152601e60248201527f42616c616e6365206f66207468697320636f6e747261637420697320302e0000604482015290519081900360640190fd5b6005546001600160a01b031633146104cf5760405162461bcd60e51b81526004018080602001828103825260218152602001806109a86021913960400191505060405180910390fd5b6001829055600381905560065460085460009102818385111561050257506001915060646005820204908190039061051c565b8484111561051c5750600291506064600582020490819003905b8261058c5760005b600854811015610586576008818154811061053b57fe5b60009182526020822001546006546040516001600160a01b039092169281156108fc029290818181858888f1935050505015801561057d573d6000803e3d6000fd5b50600101610524565b506106d4565b6000805b6008548110156105e6578460076000600884815481106105ac57fe5b60009182526020808320909101546001600160a01b0316835282019290925260400190205414156105de576001909101905b600101610590565b5060008184816105f257fe5b04905060005b6008548110156106965785600760006008848154811061061457fe5b60009182526020808320909101546001600160a01b03168352820192909252604001902054141561068e576008818154811061064c57fe5b60009182526020822001546040516001600160a01b039091169184156108fc02918591818181858888f1935050505015801561068c573d6000803e3d6000fd5b505b6001016105f8565b506005546040516001600160a01b03909116904780156108fc02916000818181858888f193505050501580156106d0573d6000803e3d6000fd5b5050505b5050505050565b60045481565b60015481565b6002805460408051602060018416156101000260001901909316849004601f8101849004840282018401909252818152929183018282801561076a5780601f1061073f5761010080835404028352916020019161076a565b820191906000526020600020905b81548152906001019060200180831161074d57829003601f168201915b505050505081565b6005546001600160a01b031681565b60035481565b60076020526000908152604090205481565b6000805460408051602060026001851615610100026000190190941693909304601f8101849004840282018401909252818152929183018282801561076a5780601f1061073f5761010080835404028352916020019161076a565b6060600880548060200260200160405190810160405280929190818152602001828054801561084c57602002820191906000526020600020905b81546001600160a01b0316815260019091019060200180831161082e575b5050505050905090565b6008818154811061086357fe5b6000918252602090912001546001600160a01b0316905081565b33600090815260076020526040902054156108df576040805162461bcd60e51b815260206004820152601c60248201527f596f7527766520616c726561647920706c616365642061206265742e00000000604482015290519081900360640190fd5b6004544211156108ee57600080fd5b600654341461093b576040805162461bcd60e51b815260206004820152601460248201527324b73b30b634b21039ba30b5b29030b6b7baba1760611b604482015290519081900360640190fd5b3360009081526007602052604090205461099257600880546001810182556000919091527ff3f7a9fe364faab93b216da50a3214154f22a0a2b415b23a84c8169e8b636ee30180546001600160a01b031916331790555b3360009081526007602052604090206001905556fe596f7520617265206e6f74206f7267616e69736572206f6620746865206265742ea264697066735822122056e4db8940c01fb225ea1f39634199b1e4843babd11deddaf5265ce740454bf364736f6c63430006090033",
    "sourcePath": "c:/MyProjects/GameBet/src/ethereum/contracts/FootballGameBet.sol",
    "compiler": {
        "name": "solc",
        "version": "0.6.9+commit.3e3065ac"
    },
    "functionHashes": {
        "awayTeam()": "7d79c192",
        "awayTeamGoals()": "7f394e6f",
        "betOnAwayTeam()": "5fe8bbda",
        "betOnHomeTeam()": "ff5a7ef8",
        "bets(address)": "89a78f1a",
        "gameFinished(uint256,uint256)": "65f95f31",
        "getAllPlayers()": "efa1c482",
        "homeTeam()": "ae989d36",
        "homeTeamGoals()": "7c968e73",
        "organiser()": "7e537486",
        "players(uint256)": "f71d96cb",
        "stake()": "3a4b66f1",
        "startTime()": "78e97925"
    },
    "gasEstimates": {
        "creation": {
            "codeDepositCost": "511600",
            "executionCost": "infinite",
            "totalCost": "infinite"
        },
        "external": {
            "awayTeam()": "infinite",
            "awayTeamGoals()": "1043",
            "betOnAwayTeam()": "65311",
            "betOnHomeTeam()": "65376",
            "bets(address)": "1191",
            "gameFinished(uint256,uint256)": "infinite",
            "getAllPlayers()": "infinite",
            "homeTeam()": "infinite",
            "homeTeamGoals()": "1087",
            "organiser()": "1060",
            "players(uint256)": "2036",
            "stake()": "999",
            "startTime()": "1065"
        }
    }
}