{
    "contractName": "FootballGameBet",
    "abi": [
        {
            "inputs": [
                {
                    "internalType": "string",
                    "name": "hometeam",
                    "type": "string"
                },
                {
                    "internalType": "string",
                    "name": "awayteam",
                    "type": "string"
                },
                {
                    "internalType": "uint256",
                    "name": "starttime",
                    "type": "uint256"
                },
                {
                    "internalType": "uint256",
                    "name": "stakeLimit",
                    "type": "uint256"
                },
                {
                    "internalType": "address payable",
                    "name": "organiserAddress",
                    "type": "address"
                }
            ],
            "stateMutability": "nonpayable",
            "type": "constructor"
        },
        {
            "inputs": [],
            "name": "awayTeam",
            "outputs": [
                {
                    "internalType": "string",
                    "name": "",
                    "type": "string"
                }
            ],
            "stateMutability": "view",
            "type": "function"
        },
        {
            "inputs": [],
            "name": "awayTeamGoals",
            "outputs": [
                {
                    "internalType": "uint8",
                    "name": "",
                    "type": "uint8"
                }
            ],
            "stateMutability": "view",
            "type": "function"
        },
        {
            "inputs": [],
            "name": "betOnAwayTeam",
            "outputs": [],
            "stateMutability": "payable",
            "type": "function"
        },
        {
            "inputs": [],
            "name": "betOnHomeTeam",
            "outputs": [],
            "stateMutability": "payable",
            "type": "function"
        },
        {
            "inputs": [
                {
                    "internalType": "address",
                    "name": "",
                    "type": "address"
                }
            ],
            "name": "bets",
            "outputs": [
                {
                    "internalType": "uint256",
                    "name": "",
                    "type": "uint256"
                }
            ],
            "stateMutability": "view",
            "type": "function"
        },
        {
            "inputs": [
                {
                    "internalType": "uint8",
                    "name": "homeGoals",
                    "type": "uint8"
                },
                {
                    "internalType": "uint8",
                    "name": "awayGoals",
                    "type": "uint8"
                }
            ],
            "name": "gameFinished",
            "outputs": [],
            "stateMutability": "nonpayable",
            "type": "function"
        },
        {
            "inputs": [],
            "name": "getAllPlayers",
            "outputs": [
                {
                    "internalType": "address payable[]",
                    "name": "",
                    "type": "address[]"
                }
            ],
            "stateMutability": "view",
            "type": "function"
        },
        {
            "inputs": [],
            "name": "homeTeam",
            "outputs": [
                {
                    "internalType": "string",
                    "name": "",
                    "type": "string"
                }
            ],
            "stateMutability": "view",
            "type": "function"
        },
        {
            "inputs": [],
            "name": "homeTeamGoals",
            "outputs": [
                {
                    "internalType": "uint8",
                    "name": "",
                    "type": "uint8"
                }
            ],
            "stateMutability": "view",
            "type": "function"
        },
        {
            "inputs": [],
            "name": "organiser",
            "outputs": [
                {
                    "internalType": "address payable",
                    "name": "",
                    "type": "address"
                }
            ],
            "stateMutability": "view",
            "type": "function"
        },
        {
            "inputs": [
                {
                    "internalType": "uint256",
                    "name": "",
                    "type": "uint256"
                }
            ],
            "name": "players",
            "outputs": [
                {
                    "internalType": "address payable",
                    "name": "",
                    "type": "address"
                }
            ],
            "stateMutability": "view",
            "type": "function"
        },
        {
            "inputs": [],
            "name": "stake",
            "outputs": [
                {
                    "internalType": "uint256",
                    "name": "",
                    "type": "uint256"
                }
            ],
            "stateMutability": "view",
            "type": "function"
        },
        {
            "inputs": [],
            "name": "startTime",
            "outputs": [
                {
                    "internalType": "uint256",
                    "name": "",
                    "type": "uint256"
                }
            ],
            "stateMutability": "view",
            "type": "function"
        }
    ],
    "bytecode": "60806040523480156200001157600080fd5b5060405162000e6838038062000e68833981810160405260a08110156200003757600080fd5b81019080805160405193929190846401000000008211156200005857600080fd5b9083019060208201858111156200006e57600080fd5b82516401000000008111828201881017156200008957600080fd5b82525081516020918201929091019080838360005b83811015620000b85781810151838201526020016200009e565b50505050905090810190601f168015620000e65780820380516001836020036101000a031916815260200191505b50604052602001805160405193929190846401000000008211156200010a57600080fd5b9083019060208201858111156200012057600080fd5b82516401000000008111828201881017156200013b57600080fd5b82525081516020918201929091019080838360005b838110156200016a57818101518382015260200162000150565b50505050905090810190601f168015620001985780820380516001836020036101000a031916815260200191505b50604090815260208201519082015160609092015190935090915042831162000208576040805162461bcd60e51b815260206004820152601860248201527f496e76616c69642067616d652073746172742074696d652e0000000000000000604482015290519081900360640190fd5b60008551116200025f576040805162461bcd60e51b815260206004820152601e60248201527f486f6d65207465616d206e616d652063616e277420626520656d7074792e0000604482015290519081900360640190fd5b6000845111620002b6576040805162461bcd60e51b815260206004820152601e60248201527f41776179207465616d206e616d652063616e277420626520656d7074792e0000604482015290519081900360640190fd5b600082116200030c576040805162461bcd60e51b815260206004820152601760248201527f5374616b652076616c75652063616e277420626520302e000000000000000000604482015290519081900360640190fd5b8451620003219060009060208801906200036a565b508351620003379060029060208701906200036a565b50600492909255600580546001600160a01b0319166001600160a01b0390931692909217909155600655506200040f9050565b828054600181600116156101000203166002900490600052602060002090601f016020900481019282601f10620003ad57805160ff1916838001178555620003dd565b82800160010185558215620003dd579182015b82811115620003dd578251825591602001919060010190620003c0565b50620003eb929150620003ef565b5090565b6200040c91905b80821115620003eb5760008155600101620003f6565b90565b610a49806200041f6000396000f3fe6080604052600436106100c25760003560e01c80637f394e6f1161007f578063efa1c48211610059578063efa1c48214610250578063f71d96cb146102b5578063f842e50e146102df578063ff5a7ef814610314576100c2565b80637f394e6f146101f357806389a78f1a14610208578063ae989d361461023b576100c2565b80633a4b66f1146100c75780635fe8bbda146100ee57806378e97925146100f85780637c968e731461010d5780637d79c192146101385780637e537486146101c2575b600080fd5b3480156100d357600080fd5b506100dc61031c565b60408051918252519081900360200190f35b6100f6610322565b005b34801561010457600080fd5b506100dc61044c565b34801561011957600080fd5b50610122610452565b6040805160ff9092168252519081900360200190f35b34801561014457600080fd5b5061014d61045b565b6040805160208082528351818301528351919283929083019185019080838360005b8381101561018757818101518382015260200161016f565b50505050905090810190601f1680156101b45780820380516001836020036101000a031916815260200191505b509250505060405180910390f35b3480156101ce57600080fd5b506101d76104e6565b604080516001600160a01b039092168252519081900360200190f35b3480156101ff57600080fd5b506101226104f5565b34801561021457600080fd5b506100dc6004803603602081101561022b57600080fd5b50356001600160a01b03166104fe565b34801561024757600080fd5b5061014d610510565b34801561025c57600080fd5b5061026561056b565b60408051602080825283518183015283519192839290830191858101910280838360005b838110156102a1578181015183820152602001610289565b505050509050019250505060405180910390f35b3480156102c157600080fd5b506101d7600480360360208110156102d857600080fd5b50356105cd565b3480156102eb57600080fd5b506100f66004803603604081101561030257600080fd5b5060ff813581169160200135166105f4565b6100f66108c8565b60065481565b3360009081526007602052604090205415610384576040805162461bcd60e51b815260206004820152601c60248201527f596f7527766520616c726561647920706c616365642061206265742e00000000604482015290519081900360640190fd5b60045442111561039357600080fd5b60065434146103e0576040805162461bcd60e51b815260206004820152601460248201527324b73b30b634b21039ba30b5b29030b6b7baba1760611b604482015290519081900360640190fd5b3360009081526007602052604090205461043757600880546001810182556000919091527ff3f7a9fe364faab93b216da50a3214154f22a0a2b415b23a84c8169e8b636ee30180546001600160a01b031916331790555b33600090815260076020526040902060029055565b60045481565b60015460ff1681565b6002805460408051602060018416156101000260001901909316849004601f810184900484028201840190925281815292918301828280156104de5780601f106104b3576101008083540402835291602001916104de565b820191906000526020600020905b8154815290600101906020018083116104c157829003601f168201915b505050505081565b6005546001600160a01b031681565b60035460ff1681565b60076020526000908152604090205481565b6000805460408051602060026001851615610100026000190190941693909304601f810184900484028201840190925281815292918301828280156104de5780601f106104b3576101008083540402835291602001916104de565b606060088054806020026020016040519081016040528092919081815260200182805480156105c357602002820191906000526020600020905b81546001600160a01b031681526001909101906020018083116105a5575b5050505050905090565b600881815481106105da57fe5b6000918252602090912001546001600160a01b0316905081565b60004711610649576040805162461bcd60e51b815260206004820152601e60248201527f42616c616e6365206f66207468697320636f6e747261637420697320302e0000604482015290519081900360640190fd5b6005546001600160a01b031633146106925760405162461bcd60e51b81526004018080602001828103825260218152602001806109f36021913960400191505060405180910390fd5b6001805460ff80851660ff19928316811790935560038054918516919092168117909155600654600854600093910291839111156106e0575060019150606460058202049081900390610700565b8460ff168460ff1611156107005750600291506064600582020490819003905b60ff83166107735760005b60085481101561076d576008818154811061072257fe5b60009182526020822001546006546040516001600160a01b039092169281156108fc029290818181858888f19350505050158015610764573d6000803e3d6000fd5b5060010161070b565b506108c1565b6000805b6008548110156107d0578460ff16600760006008848154811061079657fe5b60009182526020808320909101546001600160a01b0316835282019290925260400190205414156107c8576001909101905b600101610777565b5060008184816107dc57fe5b04905060005b600854811015610883578560ff16600760006008848154811061080157fe5b60009182526020808320909101546001600160a01b03168352820192909252604001902054141561087b576008818154811061083957fe5b60009182526020822001546040516001600160a01b039091169184156108fc02918591818181858888f19350505050158015610879573d6000803e3d6000fd5b505b6001016107e2565b506005546040516001600160a01b03909116904780156108fc02916000818181858888f193505050501580156108bd573d6000803e3d6000fd5b5050505b5050505050565b336000908152600760205260409020541561092a576040805162461bcd60e51b815260206004820152601c60248201527f596f7527766520616c726561647920706c616365642061206265742e00000000604482015290519081900360640190fd5b60045442111561093957600080fd5b6006543414610986576040805162461bcd60e51b815260206004820152601460248201527324b73b30b634b21039ba30b5b29030b6b7baba1760611b604482015290519081900360640190fd5b336000908152600760205260409020546109dd57600880546001810182556000919091527ff3f7a9fe364faab93b216da50a3214154f22a0a2b415b23a84c8169e8b636ee30180546001600160a01b031916331790555b3360009081526007602052604090206001905556fe596f7520617265206e6f74206f7267616e69736572206f6620746865206265742ea26469706673582212208231ba7d732b683d618535171aae0a59422f83d6a86ca230cfdf56161976884964736f6c63430006090033",
    "sourcePath": "c:/MyProjects/GameBet/src/ethereum/contracts/FootballGameBet.sol",
    "compiler": {
        "name": "solc",
        "version": "0.6.9+commit.3e3065ac"
    },
    "functionHashes": {
        "awayTeam()": "7d79c192",
        "awayTeamGoals()": "7f394e6f",
        "betOnAwayTeam()": "5fe8bbda",
        "betOnHomeTeam()": "ff5a7ef8",
        "bets(address)": "89a78f1a",
        "gameFinished(uint8,uint8)": "f842e50e",
        "getAllPlayers()": "efa1c482",
        "homeTeam()": "ae989d36",
        "homeTeamGoals()": "7c968e73",
        "organiser()": "7e537486",
        "players(uint256)": "f71d96cb",
        "stake()": "3a4b66f1",
        "startTime()": "78e97925"
    },
    "gasEstimates": {
        "creation": {
            "codeDepositCost": "526600",
            "executionCost": "infinite",
            "totalCost": "infinite"
        },
        "external": {
            "awayTeam()": "infinite",
            "awayTeamGoals()": "1036",
            "betOnAwayTeam()": "65311",
            "betOnHomeTeam()": "65376",
            "bets(address)": "1169",
            "gameFinished(uint8,uint8)": "infinite",
            "getAllPlayers()": "infinite",
            "homeTeam()": "infinite",
            "homeTeamGoals()": "1080",
            "organiser()": "1148",
            "players(uint256)": "2014",
            "stake()": "999",
            "startTime()": "1043"
        }
    }
}