{
    "contractName": "GameBet",
    "abi": [
        {
            "inputs": [
                {
                    "internalType": "uint256",
                    "name": "",
                    "type": "uint256"
                }
            ],
            "name": "allBets",
            "outputs": [
                {
                    "internalType": "address",
                    "name": "",
                    "type": "address"
                }
            ],
            "stateMutability": "view",
            "type": "function"
        },
        {
            "inputs": [
                {
                    "internalType": "address",
                    "name": "organiser",
                    "type": "address"
                },
                {
                    "internalType": "address",
                    "name": "bet",
                    "type": "address"
                }
            ],
            "name": "canVote",
            "outputs": [
                {
                    "internalType": "bool",
                    "name": "",
                    "type": "bool"
                }
            ],
            "stateMutability": "view",
            "type": "function"
        },
        {
            "inputs": [
                {
                    "internalType": "string",
                    "name": "homeTeam",
                    "type": "string"
                },
                {
                    "internalType": "string",
                    "name": "awayteam",
                    "type": "string"
                },
                {
                    "internalType": "uint256",
                    "name": "starttime",
                    "type": "uint256"
                },
                {
                    "internalType": "uint256",
                    "name": "stake",
                    "type": "uint256"
                }
            ],
            "name": "createFootballBet",
            "outputs": [],
            "stateMutability": "nonpayable",
            "type": "function"
        },
        {
            "inputs": [],
            "name": "getBets",
            "outputs": [
                {
                    "internalType": "address[]",
                    "name": "",
                    "type": "address[]"
                }
            ],
            "stateMutability": "view",
            "type": "function"
        },
        {
            "inputs": [],
            "name": "getOrganisers",
            "outputs": [
                {
                    "internalType": "address[]",
                    "name": "",
                    "type": "address[]"
                }
            ],
            "stateMutability": "view",
            "type": "function"
        },
        {
            "inputs": [
                {
                    "internalType": "address",
                    "name": "",
                    "type": "address"
                },
                {
                    "internalType": "address",
                    "name": "",
                    "type": "address"
                },
                {
                    "internalType": "address",
                    "name": "",
                    "type": "address"
                }
            ],
            "name": "hasVoted",
            "outputs": [
                {
                    "internalType": "bool",
                    "name": "",
                    "type": "bool"
                }
            ],
            "stateMutability": "view",
            "type": "function"
        },
        {
            "inputs": [
                {
                    "internalType": "uint256",
                    "name": "",
                    "type": "uint256"
                }
            ],
            "name": "organisers",
            "outputs": [
                {
                    "internalType": "address",
                    "name": "",
                    "type": "address"
                }
            ],
            "stateMutability": "view",
            "type": "function"
        },
        {
            "inputs": [
                {
                    "internalType": "address",
                    "name": "",
                    "type": "address"
                }
            ],
            "name": "ratings",
            "outputs": [
                {
                    "internalType": "bool",
                    "name": "active",
                    "type": "bool"
                },
                {
                    "internalType": "uint256",
                    "name": "totalRate",
                    "type": "uint256"
                },
                {
                    "internalType": "uint256",
                    "name": "numberOfTimesRated",
                    "type": "uint256"
                }
            ],
            "stateMutability": "view",
            "type": "function"
        },
        {
            "inputs": [
                {
                    "internalType": "address",
                    "name": "organiser",
                    "type": "address"
                },
                {
                    "internalType": "address",
                    "name": "bet",
                    "type": "address"
                },
                {
                    "internalType": "uint8",
                    "name": "rate",
                    "type": "uint8"
                }
            ],
            "name": "vote",
            "outputs": [],
            "stateMutability": "nonpayable",
            "type": "function"
        }
    ],
    "bytecode": "608060405234801561001057600080fd5b506117f8806100206000396000f3fe60806040523480156200001157600080fd5b5060043610620000a05760003560e01c80639e01dfbb116200006f5780639e01dfbb14620002c0578063a44f83e51462000309578063a6afd5fd1462000344578063e0ced0e1146200034e578063f6937145146200038a57620000a0565b806329222d9814620000a557806338ff13aa14620001015780634873d68d146200023e578063565d75391462000283575b600080fd5b620000af620003aa565b60408051602080825283518183015283519192839290830191858101910280838360005b83811015620000ed578181015183820152602001620000d3565b505050509050019250505060405180910390f35b6200023c600480360360808110156200011957600080fd5b8101906020810181356401000000008111156200013557600080fd5b8201836020820111156200014857600080fd5b803590602001918460018302840111640100000000831117156200016b57600080fd5b91908080601f0160208091040260200160405190810160405280939291908181526020018383808284376000920191909152509295949360208101935035915050640100000000811115620001bf57600080fd5b820183602082011115620001d257600080fd5b80359060200191846001830284011164010000000083111715620001f557600080fd5b91908080601f01602080910402602001604051908101604052809392919081815260200183838082843760009201919091525092955050823593505050602001356200040e565b005b6200026f600480360360408110156200025657600080fd5b506001600160a01b0381358116916020013516620005f9565b604080519115158252519081900360200190f35b6200023c600480360360608110156200029b57600080fd5b5080356001600160a01b03908116916020810135909116906040013560ff1662000810565b620002e960048036036020811015620002d857600080fd5b50356001600160a01b031662000917565b604080519315158452602084019290925282820152519081900360600190f35b6200026f600480360360608110156200032157600080fd5b506001600160a01b0381358116916020810135821691604090910135166200093d565b620000af62000963565b6200036e600480360360208110156200036657600080fd5b5035620009c5565b604080516001600160a01b039092168252519081900360200190f35b6200036e60048036036020811015620003a257600080fd5b5035620009ed565b606060008054806020026020016040519081016040528092919081815260200182805480156200040457602002820191906000526020600020905b81546001600160a01b03168152600190910190602001808311620003e5575b5050505050905090565b600084848484336040516200042390620009fb565b60408101849052606081018390526001600160a01b038216608082015260a08082528651908201528551819060208083019160c08401918a019080838360005b838110156200047d57818101518382015260200162000463565b50505050905090810190601f168015620004ab5780820380516001836020036101000a031916815260200191505b50838103825287518152875160209182019189019080838360005b83811015620004e0578181015183820152602001620004c6565b50505050905090810190601f1680156200050e5780820380516001836020036101000a031916815260200191505b50975050505050505050604051809103906000f08015801562000535573d6000803e3d6000fd5b506003805460018082019092557fc2575a0e9e593c00f959f8c92f12db2869c3395a3b0502d05e2516446f71f85b0180546001600160a01b0319166001600160a01b038416179055336000908152602091909152604090205490915060ff16620005f2573360008181526001602081905260408220805460ff191682179055815490810182559080527f290decd9548b62a8d60345a988386fc84ba6bc95484008f6362f93160ef3e5630180546001600160a01b03191690911790555b5050505050565b6000336001600160a01b038416141562000616575060006200080a565b6001600160a01b03831660009081526001602052604090205460ff1662000640575060006200080a565b816001600160a01b03166378e979256040518163ffffffff1660e01b815260040160206040518083038186803b1580156200067a57600080fd5b505afa1580156200068f573d6000803e3d6000fd5b505050506040513d6020811015620006a657600080fd5b5051421015620006b9575060006200080a565b826001600160a01b0316826001600160a01b0316637e5374866040518163ffffffff1660e01b815260040160206040518083038186803b158015620006fd57600080fd5b505afa15801562000712573d6000803e3d6000fd5b505050506040513d60208110156200072957600080fd5b50516001600160a01b03161462000743575060006200080a565b604080516344d3c78d60e11b815233600482015290516001600160a01b038416916389a78f1a916024808301926020929190829003018186803b1580156200078a57600080fd5b505afa1580156200079f573d6000803e3d6000fd5b505050506040513d6020811015620007b657600080fd5b5051620007c6575060006200080a565b6001600160a01b03808416600090815260026020908152604080832093861683529281528282203383529052205460ff161562000806575060006200080a565b5060015b92915050565b60058160ff16111562000862576040805162461bcd60e51b81526020600482015260156024820152742930ba329031b0b713ba1031329037bb32b9101a9760591b604482015290519081900360640190fd5b6200086e8383620005f9565b620008b2576040805162461bcd60e51b815260206004820152600f60248201526e2cb7ba9031b0b713ba103b37ba329760891b604482015290519081900360640190fd5b6001600160a01b0392831660008181526002602081815260408084209690971683529485528582203383528552858220805460ff191660019081179091559282529382905293909320808401805460ff93909316929092019091550180549091019055565b600160208190526000918252604090912080549181015460029091015460ff9092169183565b600260209081526000938452604080852082529284528284209052825290205460ff1681565b6060600380548060200260200160405190810160405280929190818152602001828054801562000404576020028201919060005260206000209081546001600160a01b03168152600190910190602001808311620003e5575050505050905090565b60038181548110620009d357fe5b6000918252602090912001546001600160a01b0316905081565b60008181548110620009d357fe5b610db98062000a0a8339019056fe60806040523480156200001157600080fd5b5060405162000db938038062000db9833981810160405260a08110156200003757600080fd5b81019080805160405193929190846401000000008211156200005857600080fd5b9083019060208201858111156200006e57600080fd5b82516401000000008111828201881017156200008957600080fd5b82525081516020918201929091019080838360005b83811015620000b85781810151838201526020016200009e565b50505050905090810190601f168015620000e65780820380516001836020036101000a031916815260200191505b50604052602001805160405193929190846401000000008211156200010a57600080fd5b9083019060208201858111156200012057600080fd5b82516401000000008111828201881017156200013b57600080fd5b82525081516020918201929091019080838360005b838110156200016a57818101518382015260200162000150565b50505050905090810190601f168015620001985780820380516001836020036101000a031916815260200191505b50604090815260208201519082015160609092015190935090915042831162000208576040805162461bcd60e51b815260206004820152601860248201527f496e76616c69642067616d652073746172742074696d652e0000000000000000604482015290519081900360640190fd5b60008551116200025f576040805162461bcd60e51b815260206004820152601e60248201527f486f6d65207465616d206e616d652063616e277420626520656d7074792e0000604482015290519081900360640190fd5b6000845111620002b6576040805162461bcd60e51b815260206004820152601e60248201527f41776179207465616d206e616d652063616e277420626520656d7074792e0000604482015290519081900360640190fd5b600082116200030c576040805162461bcd60e51b815260206004820152601760248201527f5374616b652076616c75652063616e277420626520302e000000000000000000604482015290519081900360640190fd5b8451620003219060009060208801906200036a565b508351620003379060019060208701906200036a565b50600292909255600380546001600160a01b0319166001600160a01b0390931692909217909155600455506200040f9050565b828054600181600116156101000203166002900490600052602060002090601f016020900481019282601f10620003ad57805160ff1916838001178555620003dd565b82800160010185558215620003dd579182015b82811115620003dd578251825591602001919060010190620003c0565b50620003eb929150620003ef565b5090565b6200040c91905b80821115620003eb5760008155600101620003f6565b90565b61099a806200041f6000396000f3fe60806040526004361061009c5760003560e01c80637e537486116100645780637e537486146101a157806389a78f1a146101d2578063ae989d3614610205578063efa1c4821461021a578063f71d96cb1461027f578063ff5a7ef8146102a95761009c565b80633a4b66f1146100a15780635fe8bbda146100c857806365f95f31146100d257806378e97925146101025780637d79c19214610117575b600080fd5b3480156100ad57600080fd5b506100b66102b1565b60408051918252519081900360200190f35b6100d06102b7565b005b3480156100de57600080fd5b506100d0600480360360408110156100f557600080fd5b50803590602001356103e1565b34801561010e57600080fd5b506100b6610681565b34801561012357600080fd5b5061012c610687565b6040805160208082528351818301528351919283929083019185019080838360005b8381101561016657818101518382015260200161014e565b50505050905090810190601f1680156101935780820380516001836020036101000a031916815260200191505b509250505060405180910390f35b3480156101ad57600080fd5b506101b6610714565b604080516001600160a01b039092168252519081900360200190f35b3480156101de57600080fd5b506100b6600480360360208110156101f557600080fd5b50356001600160a01b0316610723565b34801561021157600080fd5b5061012c610735565b34801561022657600080fd5b5061022f610790565b60408051602080825283518183015283519192839290830191858101910280838360005b8381101561026b578181015183820152602001610253565b505050509050019250505060405180910390f35b34801561028b57600080fd5b506101b6600480360360208110156102a257600080fd5b50356107f2565b6100d0610819565b60045481565b3360009081526005602052604090205415610319576040805162461bcd60e51b815260206004820152601c60248201527f596f7527766520616c726561647920706c616365642061206265742e00000000604482015290519081900360640190fd5b60025442111561032857600080fd5b6004543414610375576040805162461bcd60e51b815260206004820152601460248201527324b73b30b634b21039ba30b5b29030b6b7baba1760611b604482015290519081900360640190fd5b336000908152600560205260409020546103cc57600680546001810182556000919091527ff652222313e28459528d920b65115c16c04f3efc82aaedc97be59f3f377c0d3f0180546001600160a01b031916331790555b33600090815260056020526040902060029055565b60004711610436576040805162461bcd60e51b815260206004820152601e60248201527f42616c616e6365206f66207468697320636f6e747261637420697320302e0000604482015290519081900360640190fd5b6003546001600160a01b0316331461047f5760405162461bcd60e51b81526004018080602001828103825260218152602001806109446021913960400191505060405180910390fd5b6004546006546000910281838511156104a85750600191506064600582020490819003906104c2565b848411156104c25750600291506064600582020490819003905b826105325760005b60065481101561052c57600681815481106104e157fe5b60009182526020822001546004546040516001600160a01b039092169281156108fc029290818181858888f19350505050158015610523573d6000803e3d6000fd5b506001016104ca565b5061067a565b6000805b60065481101561058c5784600560006006848154811061055257fe5b60009182526020808320909101546001600160a01b031683528201929092526040019020541415610584576001909101905b600101610536565b50600081848161059857fe5b04905060005b60065481101561063c578560056000600684815481106105ba57fe5b60009182526020808320909101546001600160a01b03168352820192909252604001902054141561063457600681815481106105f257fe5b60009182526020822001546040516001600160a01b039091169184156108fc02918591818181858888f19350505050158015610632573d6000803e3d6000fd5b505b60010161059e565b506003546040516001600160a01b03909116904780156108fc02916000818181858888f19350505050158015610676573d6000803e3d6000fd5b5050505b5050505050565b60025481565b60018054604080516020600284861615610100026000190190941693909304601f8101849004840282018401909252818152929183018282801561070c5780601f106106e15761010080835404028352916020019161070c565b820191906000526020600020905b8154815290600101906020018083116106ef57829003601f168201915b505050505081565b6003546001600160a01b031681565b60056020526000908152604090205481565b6000805460408051602060026001851615610100026000190190941693909304601f8101849004840282018401909252818152929183018282801561070c5780601f106106e15761010080835404028352916020019161070c565b606060068054806020026020016040519081016040528092919081815260200182805480156107e857602002820191906000526020600020905b81546001600160a01b031681526001909101906020018083116107ca575b5050505050905090565b600681815481106107ff57fe5b6000918252602090912001546001600160a01b0316905081565b336000908152600560205260409020541561087b576040805162461bcd60e51b815260206004820152601c60248201527f596f7527766520616c726561647920706c616365642061206265742e00000000604482015290519081900360640190fd5b60025442111561088a57600080fd5b60045434146108d7576040805162461bcd60e51b815260206004820152601460248201527324b73b30b634b21039ba30b5b29030b6b7baba1760611b604482015290519081900360640190fd5b3360009081526005602052604090205461092e57600680546001810182556000919091527ff652222313e28459528d920b65115c16c04f3efc82aaedc97be59f3f377c0d3f0180546001600160a01b031916331790555b3360009081526005602052604090206001905556fe596f7520617265206e6f74206f7267616e69736572206f6620746865206265742ea264697066735822122057d9fb993824e8322e4b2cfac19b4603d24c8133a8b74f2842db8c0b6715ee0a64736f6c63430006090033a26469706673582212204d3e4b8f5fea3f1a20db36a433f4a376e6fdfae7f1a7153a2ab15a1c15ba31e364736f6c63430006090033",
    "sourcePath": "c:/MyProjects/GameBet/src/ethereum/contracts/GameBet.sol",
    "compiler": {
        "name": "solc",
        "version": "0.6.9+commit.3e3065ac"
    },
    "functionHashes": {
        "allBets(uint256)": "e0ced0e1",
        "canVote(address,address)": "4873d68d",
        "createFootballBet(string,string,uint256,uint256)": "38ff13aa",
        "getBets()": "a6afd5fd",
        "getOrganisers()": "29222d98",
        "hasVoted(address,address,address)": "a44f83e5",
        "organisers(uint256)": "f6937145",
        "ratings(address)": "9e01dfbb",
        "vote(address,address,uint8)": "565d7539"
    },
    "gasEstimates": {
        "creation": {
            "codeDepositCost": "1227200",
            "executionCost": "1275",
            "totalCost": "1228475"
        },
        "external": {
            "allBets(uint256)": "2036",
            "canVote(address,address)": "infinite",
            "createFootballBet(string,string,uint256,uint256)": "infinite",
            "getBets()": "infinite",
            "getOrganisers()": "infinite",
            "hasVoted(address,address,address)": "1335",
            "organisers(uint256)": "2058",
            "ratings(address)": "2817",
            "vote(address,address,uint8)": "infinite"
        }
    }
}